S01D000062696E2F6F70656E626C745F73746D3332663130332E7372656399
S31508000000005000204D0100089501000895010008E0
S3150800001095010008950100089501000800000000F8
S315080000200000000000000000000000009501000824
S315080000309501000800000000950100082915000830
S31508000040950100089501000895010008950100082A
S31508000050950100089501000895010008950100081A
S31508000060950100089501000895010008950100080A
S3150800007095010008950100089501000895010008FA
S3150800008095010008950100089501000895010008EA
S3150800009095010008950100089501000895010008DA
S315080000A095010008950100089501000895010008CA
S315080000B095010008950100089501000895010008BA
S315080000C095010008950100089501000895010008AA
S315080000D0950100089501000895010008950100089A
S315080000E09501000895010008950100080000000028
S315080000F000000000000000000000000000000000F2
S3110800010000000000000000005FF808F195
S3150800010C10B5054C237833B9044B13B10448AFF337
S3150800011C00800123237010BD100000200000000091
S3150800012C7415000808B5034B1BB103490348AFF314
S3150800013C008008BD0000000014000020741500089B
S3150800014C00F0F4FD0B480C490C4A002302E0D45885
S3150800015CC4500433C4188C42F9D3094A094C0023F9
S3150800016C01E013600432A242FBD301F0D9F900F086
S3150800017CDFFD7047000000200C000020F015000879
S3150800018C1000002030060020FEE70000184A10B5C3
S3150800019C536803F00C03082B28D15368DB0341BFC3
S315080001AC53681449C3F34043013348BFB1FBF3F119
S315080001BC536858BF1049C3F3834302334B43036058
S315080001CC51680E4CC1F30311615C0D4CCB40436076
S315080001DC5168C1F30221615C23FA01F1816052680E
S315080001ECC2F3C222A25CD340C36010BD014BE6E742
S315080001FC0010024000127A0000093D008C15000818
S3150800020C9C150008054B82B09A6902439A619B6952
S3150800021C18400190019B02B0704700BF00100240C5
S3150800022C044B1B78013BDBB2032B9ABF024AD05C0A
S3150800023C8120704704000020A4150008FE22034BF9
S3150800024C1A7002225870A3F886207047A40500205D
S3150800025C006870470B4B0C485B6A028810B59B1AF2
S3150800026C9BB2632B0DD96421B3FBF1F3074C2168C0
S3150800027C194403EB830303EB830302EB830321602B
S3150800028C038010BD002C0140640400206C0400207F
S3150800029C38B50E4C0E4DFFF7DDFF22682B689A42D7
S315080002AC0ED80C4B042118780B4A50B9012018703B
S315080002BC1161FFF7CFFF094B2A681B88134423608B
S315080002CC38BD002018705161F3E700BF7004002098
S315080002DC6C04002068040020000C01406604002011
S315080002ECF8B506460F4615460024AC4200D1F8BDB3
S315080002FC3B5D3355FFF7CCFF0134F6E770B5094D76
S3150800030C094E6860FFF7A6FF336803F10A042B68E9
S3150800031C1B0606D4FFF7BCFFFFF79CFF33689C420D
S3150800032CF5D270BD003801406C040020F8B54CF2CB
S3150800033C5037224DFFF78EFF214C2E68E368DB07FA
S3150800034C33D4E3689F0644BF2023E360E368DE06E4
S3150800035C06D4E369DD0703D4E06810F0040023D063
S3150800036C174AD36813F0100305D01649CB6943F026
S3150800037C0203CB611023D268500706D5114943F006
S3150800038C0403CA6942F00102CA610D4AD169C90758
S3150800039C08D50C48C16941F00401C161D16921F045
S315080003AC0101D1610120D360F8BDFFF753FF2B681B
S315080003BC9B1BBB42C2D90320F6E700BF6C04002086
S315080003CC0020024078040020054B1A69120605D550
S315080003DC044A5A6002F188325A601B69704700BF9A
S315080003EC00200240230167452DE9F843FFF7ECFF8F
S315080003FC07460024254DDFF898903B4653F8046BC6
S3150800040C53F80480FFF744FF2B7E2644012B3BD080
S3150800041C01232B76FFF78AFF20BBE861D9F8102059
S3150800042C1FFA88F342F00102C9F810203380FFF74F
S3150800043C7DFFD9F8103023F00103C9F8103088B9BC
S3150800044CE861D9F810204FEA184342F00102C9F8BE
S3150800045C10207380FFF76AFFD9F8103023F00103D8
S3150800046CC9F8103000232B7670B9336843450BD185
S3150800047C0434B4F5007FC0D10120054A136943F052
S3150800048C80031361BDE8F8830020F6E778040020A2
S3150800049C0020024038B50E4B044698420D4607D04C
S315080004AC0C4A914212D0FFF79FFF10B904460BE095
S315080004BC094C23689D4207D020464FF40072294602
S315080004CC40F8045BFFF70CFF204638BD1C46F0E7E6
S315080004DC3802002000200008340000202DE9F041E5
S315080004EC1F46036821F4FF76013304460D469046F1
S315080004FC26F0010606D14FF40072314640F8046B1B
S3150800050CFFF7EEFE2368B34205D020463146FFF7C7
S3150800051CC1FF0446E8B1216804356D1A254406F571
S3150800052C00764744FFF7B4FE231DEB1AB3F5007F9C
S3150800053C06D320463146FFF7ADFF044648B1051DE4
S3150800054C18F8013BB84505F8013BEBD10120BDE88D
S3150800055CF0810020FBE7000030B40E4D4C1E0B4614
S3150800056C291A8C4212D80C4CA0420FD3411E19449E
S3150800057CA9420BD820F4FF7121F00101A1420146D2
S3150800058C30BC0CBF05480648FFF7A8BF002030BC96
S3150800059C704700BFFFFF0108002000083802002042
S315080005AC340000204FF47A72194B10B51B68B3FB54
S315080005BCF2F3013BB3F1807F28D24FF0E02253616E
S315080005CCF0231449072481F8233000230F2893615C
S315080005DC14611BD8CA68C2F30222A11A042902F1B3
S315080005EC040428BF0421062C98BF1A464FF0FF3383
S315080005FC03FA01F388BF033A20EA030393401B016D
S3150800060C044ADBB282F82330034B186010BD00BFD6
S3150800061C0000002000ED00E008000020484AD2E95E
S3150800062C00310B4491680B44D1680B4411690B4497
S3150800063C51690B449169D2F80C210B44D3427DD1F4
S3150800064C404B9A68D24312F4005277D10421A3F591
S3150800065C806359614FF0FF3103F5823319611A61D2
S3150800066CD960DA601A6842F001021A601A689207B1
S3150800067CFCD55A6822F003025A605A6812F00C0F1D
S3150800068CFBD11A6822F080721A601A6812F000728E
S3150800069CFBD15A60196821F450211960196821F0A8
S315080006ACF80141F0800119609A60596A41F080712D
S315080006BC5962D96841F00801D960D96821F0080156
S315080006CCD960D96841F00401D960D96821F00401D0
S315080006DCD960D96921F00071D961996921F48041F1
S315080006EC9961996921F008019961996921F00401C8
S315080006FC9961D96921F08051D961996921F0010173
S3150800070C9961D96841F40061D960D96821F400610E
S3150800071CD960996921F4006199614FF0E0231A6157
S3150800072C5A619A61D3F8042D42F00072C3F8042D6D
S3150800073C034AC3F8082D536862B61847704700BFBA
S3150800074C002000080010014038B50C4B93F8815076
S3150800075C95B90B4C2378012B0ED1FFF77BFD094B72
S3150800076C094A1B68126803F5FA73934204D8257074
S3150800077CBDE83840FFF752BF38BD00BFA4050020BE
S3150800078C2C000020300000206C0400202DE9F04FCE
S3150800079CA64EA74C337889B0FF2B40F084800122F3
S315080007AC002384F8812041F2FF0284F882302280EB
S315080007BCA370FFF735FDE070FFF732FD2071FFF7E8
S315080007CC2FFD40F20113E3800823A4F886304FF07E
S315080007DCFF33984A000A1360974A6071136094F8BD
S315080007EC8430012B02D11020FFF728FDB4F986506E
S315080007FC002D40F3EA810127904B84F884701E780B
S3150800080C022E40F0E9818E4E96F820103268013996
S3150800081CB942936800F2DC8113F0E05F00F0CE81F8
S3150800082CC3F3016387494FEA031C9F40EDB202EB01
S3150800083C0313C3F88011C3F884519DF81C10624445
S3150800084C012908BFD3F88411DFF8FC8104BF41F4F1
S3150800085C8071C3F884116168BF06C2F88C112168CF
S3150800086CC2F88811D3F8802142F00102C3F880211E
S3150800087CFFF7F0FCD8F8003003F1320596F8203073
S3150800088C013B012B00F29E8133689B6837EA030310
S3150800089C00F09881FFF7FCFCFFF7DCFCD8F8003079
S315080008AC9D42EBD28EE194F88150012D40F08D815A
S315080008BCD22B1BD8C82B1ED9C93B092B1BD8DFE852
S315080008CC13F082001A001A008C001A001A007A011A
S315080008DC99000601FB00F33B0B2B0CD8DFE803F061
S315080008EC3C270D330B0B0B570B5F616B03F10D029A
S315080008FCD2B20B2AEFD9202005E0FFF791FC7278CB
S3150800090C904203D82220FFF799FC68E7D4F88810A0
S3150800091C4E48FFF7E5FCFF23D4F88820237073783C
S3150800092C1A44C4F888200133A4F8863057E7FFF731
S3150800093C77FC72789042E5D94548FFF789FC014661
S3150800094CC4F88800E4E7FF2341482370FFF780FCCE
S3150800095CC4F888000123E7E7FF233D482370FFF717
S3150800096C77FC0025D4F888608719BE4208D1002385
S3150800097C012225716371E380627063800823D3E7D3
S3150800098C16F8013B1D44EDB2FFF782FCEDE7314B3F
S3150800099CFF22C4F888300723C4E90023EEE70020B9
S315080009ACB1E7FF23238094F88230A3700023E37009
S315080009BCA3800623B8E7002384F8813084F88230B4
S315080009CCFF232370C6E7FFF72BFCD4F88850411E8B
S315080009DC214A2846FFF7C0FD08B9312093E7FF23C3
S315080009EC2370FFF71DFCD4F8883001380344C4F88B
S315080009FC8830AFE7FFF714FC71780138884281DD3F
S31508000A0CFF2323700123A4F88630002946D10A4D0A
S31508000A1C2B68013322D10748036801333FF4DFAE54
S31508000A2CFFF7E2FC00287FF4DAAED6E7980400203C
S31508000A3CA405002034000020380200200400002001
S31508000A4C3C040020000020FC6C040020A5050020B6
S31508000A5C9C040020DE15000899040020D5E9013213
S31508000A6C1344EA68284613442A69674913446A6991
S31508000A7C1344AA691344EA6913445B42029302AA13
S31508000A8C0423FFF72BFD0028A7D02B680133C2D00F
S31508000A9C2846FFF7A9FC0028BDD19EE75B4AD4F887
S31508000AAC8800FFF759FD002897D0D4F8883072785B
S31508000ABC1344C4F8883092E6FF2300212380A170E2
S31508000ACCFFF7AEFB0723E070A180A1712CE7504815
S31508000ADCFFF7BEFBD4F888304E49461ECA1A964212
S31508000AEC3FF67BAF4C4A23F47F7626F003069642F4
S31508000AFCFFF473AF5A1E02448A423FF66EAF9B1B35
S31508000B0C0344C3F38F28C3F309031BB108F1010887
S31508000B1C1FFA88F8FFF758FC4FF0000A3F4FDFF82A
S31508000B2C00B106F580661FFA8AF29045A6F580692B
S31508000B3C05D9FFF7ADFB3A7E012A09D10025384ABB
S31508000B4C136943F080031361002D7FF439AF44E732
S31508000B5C01233B76FFF7EAFB0123024648B300253F
S31508000B6C3D76ECE7FA61DBF81010019241F00201D0
S31508000B7CCBF81010CBF81490DBF8101041F04001AC
S31508000B8CCBF81010FFF7D2FBDBF8101021F002019E
S31508000B9CCBF8101020B9019A09F58069B145E1D353
S31508000BAC00220AF1010A3A7606F580660028BAD0C0
S31508000BBCC4E71846F2E7FFF731FD01E7736A43F419
S31508000BCC00137362002384F8843009B0BDE8F08FF3
S31508000BDC736A43F48023F4E7002EF3D1EDB2812D2A
S31508000BEC02D9FFF755FBFCE72846FFF787FB0D4FA5
S31508000BFCADB2B3B2AB42E5D2FFF74AFB17F8010B1D
S31508000C0CFFF77CFB0136F4E70C2100089A04002058
S31508000C1C9C040020FFFF010800200008780400202F
S31508000C2C00200240A40500202DE9F04F0D68C5F3FD
S31508000C3C0F2595FAA5F20327B2FA82F24FF0040CA7
S31508000C4C4FF0011E40F2011835FA02F301D1BDE846
S31508000C5CF08F012393402B4266D0072A88BFA2F156
S31508000C6C0803D1F804A08ABF0EFA03F308FA02F3B4
S31508000C7C43F08063BAF1080F0CD1C6681C0A94FAC3
S31508000C8CA4F9B9FA89F926EA04060C6904FA09F4EE
S31508000C9C2643C6604FEA136993FAA3F6B6FA86F6A4
S31508000CAC93FAA3FB0F24BBFA8BFBB60004FA06F6E1
S31508000CBC50F809404FEA8B0B24EA06060AFA0BFB96
S31508000CCC46EA0B0640F809604C6824F00804012C27
S31508000CDC2AD193FAA3F4B4FA84F493FAA3FBBBFAD5
S31508000CEC8BFBA40007FA04F426EA04068C684FEA80
S31508000CFC8B0B04FA0BFB46EA0B0640F8096093FAD1
S31508000D0CA3FABAFA8AFA93FAA3F3B3FA83F34FEA75
S31508000D1C8A0A0CFA0AFA26EA0A0ACE689B009E4048
S31508000D2C4AEA060640F8096001328DE7704700006A
S31508000D3CA34AA44913682DE9804843F010031360AD
S31508000D4CCA68A14B22F4E0621204120C134389B050
S31508000D5C9E4CCB600020FFF725FC0120FFF752FACA
S31508000D6CE369042043F08053E361E36940F20445E8
S31508000D7C03F080530293029BFFF744FA0820FFF70F
S31508000D8C41FA4FF48040FFF73DFAE3694FF0040B44
S31508000D9C43F00073E361E3694FF0090903F000734C
S31508000DAC0193019B0123CDE90353022300254FF040
S31508000DBC0308874F03A93846DFF818A2CDE905358D
S31508000DCCFFF732FFC7F814B0A7F58060CDE90585A3
S31508000DDCCDE903A9FFF728FF7F4BCDE9033BFFF7C6
S31508000DEC23FF0823DFF8F4C13846CDE903C3FFF720
S31508000DFC1BFFCDE90585CDE903A9FFF715FF784A51
S31508000E0C784D536823F0E06323F4C04343F0E06362
S31508000E1C43F480435360636803F00C035B4507D0C7
S31508000E2C636803F00C03082B2DD16368D8032AD505
S31508000E3C2368636803F00C03082B00F0B2800022C9
S31508000E4C694B1A66FFF706FA2F6823689A0100F1B0
S31508000E5CA0800122636823F400336360636823F47B
S31508000E6C741343F4E81363605F4B1A66FFF7F2F9E1
S31508000E7C2F6823689B0116D4FFF7ECF92B68DB1B4C
S31508000E8C022BF6D90FE0236843F480332360FFF76F
S31508000E9CE1F92F6823689903CBD4FFF7DBF92B68A4
S31508000EACDB1B642BF6D9464A136813F0060F7AD067
S31508000EBC636843F4E0636360636843F46053636098
S31508000ECC636823F0F003636023689F0100F1A28036
S31508000EDC72B66422454B4FF400601A80FFF792F9FC
S31508000EEC6368434AC3F3C223D15C424B01201B6897
S31508000EFC414A23FA01F16368106013F4605F0CBF72
S31508000F0C012302234B433D494FF6FF70B3FBF1F324
S31508000F1C0024013BD0629362536903A843F0010392
S31508000F2C53612C60526A364B4FF4FA781A804FF09C
S31508000F3CFF33344A344F1360344A1360344BA3F8E6
S31508000F4C8240C3F88840A3F8864083F8814083F82A
S31508000F5C8440FFF71BF94FF47A7E059BB3FBFEFE24
S31508000F6C3A787878111801FB0881BEFBF1FC01FB75
S31508000F7C1CE333B90CF1FF3189B2B1F5806FC0F0BF
S31508000F8C52820134122C07F10207E9D1FFF780F9D6
S31508000F9CFCE7FFF75FF92B68DB1B022B7FF655AFD7
S31508000FAC81E763687FE7136823F0070343F00203BE
S31508000FBC1360136803F00703022B3FF479AF87E736
S31508000FCC0020024000ED00E00003FA050010024084
S31508000FDC000C014002000204040004040100010490
S31508000FEC000001406C040020000042426604002008
S31508000FFC9C15000800000020002C0140A08601006A
S3150800100C6404002034000020BA15000838020020B9
S3150800101CA405002041F28838636823F0030343F0E3
S3150800102C02036360FFF716F92F68636803F00C0375
S3150800103C082B22D1AC4A136803F00703022B23D8DA
S3150800104C636823F4E06343F480636360636823F4A2
S3150800105C60536360626802F00C03082B21D0A34B23
S3150800106C6268A349C2F303128A5CD340A14A13608F
S3150800107CA14B1868FFF796FA2AE7FFF7EBF82B68E7
S3150800108CDB1B4345D1D923E7136823F0070343F049
S3150800109C02031360136803F00703022B7FF418AFDF
S315080010ACCEE79649C2F38343D003CB5C09D58F4967
S315080010BC62684B439249C2F340428A5CB3FBF2F333
S315080010CCCEE7904A5343CBE7FFF7C4F82B68DB1BF4
S315080010DC0A2B40F2C281636A43F400336362052328
S315080010EC84F8203094F820202368013A012A4FD836
S315080010FCD3F8002242F00102C3F80022D3F81C22CE
S3150800110C22F00102C3F81C22D3F80C2242F0010289
S3150800111CC3F80C227C4AC3F8402202F14C52043222
S3150800112CC3F84422D3F8042222F00102C3F804229D
S3150800113CD3F8142222F00102C3F81422D3F81C2285
S3150800114C42F00102C3F81C22D3F8002222F0010255
S3150800115CC3F8002294F82020012A40F0C08002220D
S3150800116C84F820201A6822F001021A60FFF772F838
S3150800117C2F6823685B6813F001030ED1636219E0CC
S3150800118CFFF768F82B68DB1B0A2B40F27281A2E783
S3150800119C626A42F480226262DCE7FFF75BF82B682E
S315080011ACDB1B0A2BE5D9636A43F400336362052318
S315080011BC84F820300223554FDFF854813B70D8F859
S315080011CC0C3023F40053C8F80C30D8F80C309B04B8
S315080011DC2ED4D8F80C3003A823F4B05323F00C0300
S315080011EC43F00C03C8F80C30D8F8103023F44053ED
S315080011FCC8F81030D8F8143023F44073C8F81430F3
S3150800120CFEF7C4FF069B9BB1192253434FF4613278
S3150800121CB3FBF2F36422B3FBF2F102FB11331B01AD
S3150800122C3233B3FBF2F303EB01139BB2C8F8083065
S3150800123CDFF8DC800122D8F81030DFF8D89023F4D8
S3150800124C9043C8F81030D8F81430DFF8CCA023F047
S3150800125C2A03C8F81430D8F80C3043F40053C8F8ED
S3150800126C0C3000233B702D4B1A70FEF7F3FF2A68DF
S3150800127C2B4B1A60FFF768FAFFF70AF8FEF7EAFF36
S3150800128C94F82030013B012B00F2A0802368DA6821
S3150800129C90074DD1636A43F4001363629AF800B061
S315080012ACD8F80030BBF1000F40F094809B0613D59C
S315080012BCD8F804301B4ADBB21370013BDBB2802B27
S315080012CC0AD8FEF7C7FF184B2A681A60174B83F81B
S315080012DC00B001238AF80030FFF736FACCE7636AC8
S315080012EC43F400234AE700BF0020024000127A00AC
S315080012FC8C1500080000002008000020A81500081E
S3150800130CB815000800093D000000E0CC04000020D8
S3150800131C00380140980400209D0500202C00002070
S3150800132C3000002019050020A00500209E0500208D
S3150800133CD3F8B02112F004020CBFD3F8B061D3F87D
S3150800134CB011D3F8B011D3F8B41108BF760D09074C
S3150800135C58BFD3F8B411D3F8B411D3F8B411D3F8E1
S3150800136CB81189F80010D3F8B811090A89F80110D0
S3150800137CD3F8B811090C89F80210D3F8B811090E6C
S3150800138C89F80310D3F8BC1189F80410D3F8BC11EA
S3150800139C090A89F80510D3F8BC11090C89F8061046
S315080013ACD3F8BC11090E89F80710D96841F0200149
S315080013BCD96040F267639E427FF470AF002A7FF4CF
S315080013CC6DAF02233B70FFF7E1F967E7636A43F4F5
S315080013DC802362E713F0200B19D04B4A4B4913783C
S315080013ECD8F804C0C8180133DBB213700A7880F831
S315080013FC01C09A427FF470AF48460131FEF770FF80
S3150800140C00238AF800303B70FFF7C0F964E7FEF753
S3150800141C21FF3F4B2A681B68C8339342BFF45CAF65
S3150800142C8AF800B058E74FF080773A4C013AC4E98D
S3150800143C0233A383431E384912041B05A761636153
S3150800144C2261C4F804C094F820300B68216043F07C
S3150800145C01030B60FEF7FEFE2F6823685A68D10756
S3150800146C7FF532AE1A6822F002021A60FEF7F2FE17
S3150800147C2F6823685A6892073FF582AE227E012AA6
S3150800148C1A680CBF42F0800222F080021A60627E53
S3150800149C012A1A680CBF42F0400222F040021A6078
S315080014ACA27E012A1A680CBF42F0200222F0200202
S315080014BC1A60E27E012A1A680CBF22F0100242F06A
S315080014CC10021A60227F012A1A680CBF42F0080221
S315080014DC22F008021A60627F012A1A680CBF42F0D1
S315080014EC040222F004021A60D4E902210A43216993
S315080014FC0A4361690A43616801390A43DA610023C0
S3150800150C63620123ECE500BF9E0500201905002047
S3150800151CA00500203C040020006400407047000031
S3150800152C70B500260C4D0D4C641BA410A64209D1AF
S3150800153C00F01AF800260A4D0A4C641BA410A642A1
S3150800154C05D170BD55F8043B98470136EEE755F8BA
S3150800155C043B98470136F2E7E8150008E815000839
S3150800156CE8150008EC150008F8B500BFF8BC08BC6F
S3150800157C9E467047F8B500BFF8BC08BC9E46704737
S3150800158C0000000000000000010203040607080919
S3150800159C0000000001020304000800000203040511
S315080015AC060708090A0B0C0D0E0F1010010205028E
S315080015BC0602060307030803090309040A040B04B5
S315080015CC0C040C050D050E050F050F061006100765
S311080015DC10084F70656E424C5400000069
S309080015E831010008B7
S309080015EC0D010008D7
S311080015F00024F4000500000010000000B4
S7050800014DA4
