S01D000062696E2F6F70656E626C745F73746D3332663130332E7372656399
S31508000000005000204D0100089501000895010008E0
S3150800001095010008950100089501000800000000F8
S315080000200000000000000000000000009501000824
S31508000030950100080000000095010008C11300089A
S31508000040950100089501000895010008950100082A
S31508000050950100089501000895010008950100081A
S31508000060950100089501000895010008950100080A
S3150800007095010008950100089501000895010008FA
S3150800008095010008950100089501000895010008EA
S3150800009095010008950100089501000895010008DA
S315080000A095010008950100089501000895010008CA
S315080000B095010008950100089501000895010008BA
S315080000C095010008950100089501000895010008AA
S315080000D0950100089501000895010008950100089A
S315080000E09501000895010008950100080000000028
S315080000F000000000000000000000000000000000F2
S3110800010000000000000000005FF808F195
S3150800010C10B5054C237833B9044B13B10448AFF337
S3150800011C00800123237010BD080000200000000099
S3150800012C0C14000808B5034B1BB103490348AFF37D
S3150800013C008008BD000000000C0000200C1400080C
S3150800014C00F0D4FD0B480C490C4A002302E0D458A5
S3150800015CC4500433C4188C42F9D3094A094C0023F9
S3150800016C01E013600432A242FBD301F025F900F03A
S3150800017CBFFD70470000002008000020741400081A
S3150800018C0800002028060020FEE70000184A10B5D3
S3150800019C536803F00C03082B28D15368DB0341BFC3
S315080001AC53681449C3F34043013348BFB1FBF3F119
S315080001BC536858BF1049C3F3834302334B43036058
S315080001CC51680E4CC1F30311615C0D4CCB40436076
S315080001DC5168C1F30221615C23FA01F1816052680E
S315080001ECC2F3C222A25CD340C36010BD014BE6E742
S315080001FC0010024000127A0000093D002414000881
S3150800020C34140008054B82B0DA690243DA61DB69FB
S3150800021C18400190019B02B0704700BF00100240C5
S3150800022C054B82B09A6902439A619B691840019002
S3150800023C019B02B0704700BF00100240044B1B78AC
S3150800024C013BDBB2032B9ABF024AD05C8120704774
S3150800025C040000203C140008FE22034B1A700222EC
S3150800026C5870A3F8862070479C05002000687047D4
S3150800027C0B4B0C485B6A028810B59B1A9BB2632B16
S3150800028C0DD96421B3FBF1F3074C2168194403EB30
S3150800029C830303EB830302EB83032160038010BD06
S315080002AC002C01405C0400206404002038B50E4C78
S315080002BC0E4DFFF7DDFF22682B689A420ED80C4BC1
S315080002CC202118780B4A50B9012018701161FFF7D4
S315080002DCCFFF094B2A681B881344236038BD0020BE
S315080002EC18705161F3E700BF68040020640400200D
S315080002FC60040020000801405E040020F8B506469C
S3150800030C0F4615460024AC4200D1F8BD3B5D33556B
S3150800031CFFF7CCFF0134F6E770B5094D094E686056
S3150800032CFFF7A6FF336803F10A042B681B0606D4ED
S3150800033CFFF7BCFFFFF79CFF33689C42F5D270BDF4
S3150800034C0044004064040020F8B54CF25037224DA6
S3150800035CFFF78EFF214C2E68E368DB0733D4E3687E
S3150800036C9F0644BF2023E360E368DE0606D4E369F0
S3150800037CDD0703D4E06810F0040023D0174AD368CD
S3150800038C13F0100305D01649CB6943F00203CB6171
S3150800039C1023D268500706D5114943F00403CA69DD
S315080003AC42F00102CA610D4AD169C90708D50C4841
S315080003BCC16941F00401C161D16921F00101D16122
S315080003CC0120D360F8BDFFF753FF2B689B1BBB427C
S315080003DCC2D90320F6E700BF6404002000200240BF
S315080003EC70040020054B1A69120605D5044A5A6092
S315080003FC02F188325A601B69704700BF0020024020
S3150800040C230167452DE9F843FFF7ECFF074600245F
S3150800041C254DDFF898903B4653F8046B53F8048047
S3150800042CFFF744FF2B7E2644012B3BD001232B766A
S3150800043CFFF78AFF20BBE861D9F810201FFA88F36A
S3150800044C42F00102C9F810203380FFF77DFFD9F876
S3150800045C103023F00103C9F8103088B9E861D9F8CF
S3150800046C10204FEA184342F00102C9F81020738095
S3150800047CFFF76AFFD9F8103023F00103C9F81030DA
S3150800048C00232B7670B9336843450BD10434B4F585
S3150800049C007FC0D10120054A136943F0800313611C
S315080004ACBDE8F8830020F6E770040020002002401F
S315080004BC38B50E4B044698420D4607D00C4A914265
S315080004CC12D0FFF79FFF10B904460BE0094C2368BE
S315080004DC9D4207D020464FF40072294640F8045B2B
S315080004ECFFF70CFF204638BD1C46F0E7300200200B
S315080004FC002000082C0000202DE9F0411F46036857
S3150800050C21F4FF76013304460D46904626F0010683
S3150800051C06D14FF40072314640F8046BFFF7EEFE35
S3150800052C2368B34205D020463146FFF7C1FF04467F
S3150800053CE8B1216804356D1A254406F5007647445A
S3150800054CFFF7B4FE231DEB1AB3F5007F06D320463E
S3150800055C3146FFF7ADFF044648B1051D18F8013BB7
S3150800056CB84505F8013BEBD10120BDE8F081002028
S3150800057CFBE7000030B40E4D4C1E0B46291A8C4274
S3150800058C12D80C4CA0420FD3411E1944A9420BD8C1
S3150800059C20F4FF7121F00101A142014630BC0CBFC9
S315080005AC05480648FFF7A8BF002030BC704700BFB7
S315080005BCFFFF010800200008300200202C00002054
S315080005CC4F4AD2E900310B4491680B44D1680B446D
S315080005DC11690B4451690B449169D2F80C210B44EF
S315080005ECD34240F08B80474B9A68D24312F40052A0
S315080005FC40F084802021A3F5006359614FF0FF3148
S3150800060C03F5843319611A61D960DA601A6842F005
S3150800061C01021A601A689207FCD55A6822F003027E
S3150800062C5A605A6812F00C0FFBD11A6822F08072C5
S3150800063C1A601A6812F00072FBD15A60196821F414
S3150800064C50211960196821F0F80141F080011960F0
S3150800065C9A60596A41F080715962D96841F0100163
S3150800066CD960D96821F01001D960D96841F0080120
S3150800067CD960D96821F00801D960D96841F004011C
S3150800068CD960D96821F00401D960D96921F00071C3
S3150800069CD961D96921F40031D961996921F0100120
S315080006AC9961996921F008019961996921F0040108
S315080006BC9961D96921F08051D961996921F00101B3
S315080006CC9961D96841F40061D960D96821F400614F
S315080006DCD960996921F4006199614FF0E0231A6198
S315080006EC5A619A61D3F8042D42F00072C3F8042DAE
S315080006FC034AC3F8082D536862B61847704700BFFB
S3150800070C002000080010014038B50C4B93F88150B6
S3150800071C95B90B4C2378012B0ED1FFF7A9FD094B84
S3150800072C094A1B68126803F5FA73934204D82570B4
S3150800073CBDE83840FFF744BF38BD00BF9C05002014
S3150800074C2400002028000020640400202DE9F04F26
S3150800075CA64EA74C337889B0FF2B40F08480012233
S3150800076C002384F8812041F2FF0284F8823022802B
S3150800077CA370FFF763FDE070FFF760FD2071FFF7CC
S3150800078C5DFD40F20113E3800823A4F886304FF090
S3150800079CFF33984A000A1360974A6071136094F8FD
S315080007AC8430012B02D11020FFF756FDB4F9865080
S315080007BC002D40F3EA810127904B84F884701E784B
S315080007CC022E40F0E9818E4E96F8201032680139D7
S315080007DCB942936800F2DC8113F0E05F00F0CE8139
S315080007ECC3F3016387494FEA031C9F40EDB202EB42
S315080007FC0313C3F88011C3F884519DF81C10624486
S3150800080C012908BFD3F88411DFF8FC8104BF41F431
S3150800081C8071C3F884116168BF06C2F88C1121680F
S3150800082CC2F88811D3F8802142F00102C3F880215E
S3150800083CFFF71EFDD8F8003003F1320596F8203084
S3150800084C013B012B00F29E8133689B6837EA030350
S3150800085C00F09881FFF72AFDFFF70AFDD8F800305B
S3150800086C9D42EBD28EE194F88150012D40F08D819A
S3150800087CD22B1BD8C82B1ED9C93B092B1BD8DFE892
S3150800088C13F082001A001A008C001A001A007A015A
S3150800089C99000601FB00F33B0B2B0CD8DFE803F0A1
S315080008AC3C270D330B0B0B570B5F616B03F10D02DA
S315080008BCD2B20B2AEFD9202005E0FFF7BFFC7278DD
S315080008CC904203D82220FFF7C7FC68E7D4F88810B3
S315080008DC4E48FFF713FDFF23D4F88820237073784E
S315080008EC1A44C4F888200133A4F8863057E7FFF772
S315080008FCA5FC72789042E5D94548FFF7B7FC014646
S3150800090CC4F88800E4E7FF2341482370FFF7AEFCE0
S3150800091CC4F888000123E7E7FF233D482370FFF757
S3150800092CA5FC0025D4F888608719BE4208D1002397
S3150800093C012225716371E380627063800823D3E713
S3150800094C16F8013B1D44EDB2FFF7B0FCEDE7314B51
S3150800095CFF22C4F888300723C4E90023EEE70020F9
S3150800096CB1E7FF23238094F88230A3700023E37049
S3150800097CA3800623B8E7002384F8813084F88230F4
S3150800098CFF232370C6E7FFF759FCD4F88850411E9D
S3150800099C214A2846FFF7EEFD08B9312093E7FF23D5
S315080009AC2370FFF74BFCD4F8883001380344C4F89D
S315080009BC8830AFE7FFF742FC71780138884281DD51
S315080009CCFF2323700123A4F88630002946D10A4D4B
S315080009DC2B68013322D10748036801333FF4DFAE95
S315080009ECFFF710FD00287FF4DAAED6E79004002056
S315080009FC9C0500202C00002030020020040000205A
S31508000A0C34040020000020FC640400209D0500200E
S31508000A1C940400206414000891040020D5E90132DE
S31508000A2C1344EA68284613442A69674913446A69D1
S31508000A3C1344AA691344EA6913445B42029302AA53
S31508000A4C0423FFF759FD0028A7D02B680133C2D021
S31508000A5C2846FFF7D7FC0028BDD19EE75B4AD4F899
S31508000A6C8800FFF787FD002897D0D4F8883072786D
S31508000A7C1344C4F8883092E6FF2300212380A17022
S31508000A8CFFF7DCFB0723E070A180A1712CE7504827
S31508000A9CFFF7ECFBD4F888304E49461ECA1A964224
S31508000AAC3FF67BAF4C4A23F47F7626F00306964234
S31508000ABCFFF473AF5A1E02448A423FF66EAF9B1B75
S31508000ACC0344C3F38F28C3F309031BB108F10108C8
S31508000ADC1FFA88F8FFF786FC4FF0000A3F4FDFF83D
S31508000AEC00B106F580661FFA8AF29045A6F580696C
S31508000AFC05D9FFF7DBFB3A7E012A09D10025384ACE
S31508000B0C136943F080031361002D7FF439AF44E772
S31508000B1C01233B76FFF718FC0123024648B3002550
S31508000B2C3D76ECE7FA61DBF81010019241F0020110
S31508000B3CCBF81010CBF81490DBF8101041F04001EC
S31508000B4CCBF81010FFF700FCDBF8101021F00201AF
S31508000B5CCBF8101020B9019A09F58069B145E1D393
S31508000B6C00220AF1010A3A7606F580660028BAD000
S31508000B7CC4E71846F2E7FFF723FD01E7736A43F467
S31508000B8C00137362002384F8843009B0BDE8F08F33
S31508000B9C736A43F48023F4E7002EF3D1EDB2812D6A
S31508000BAC02D9FFF783FBFCE72846FFF7B5FB0D4F89
S31508000BBCADB2B3B2AB42E5D2FFF778FB17F8010B2F
S31508000BCCFFF7AAFB0136F4E70C2100089204002073
S31508000BDC94040020FFFF0108002000087004002080
S31508000BEC002002409C0500202DE9F04F0D68C5F346
S31508000BFC0F2595FAA5F20327B2FA82F24FF0040CE8
S31508000C0C4FF0011E40F2011835FA02F301D1BDE886
S31508000C1CF08F012393402B4266D0072A88BFA2F196
S31508000C2C0803D1F804A08ABF0EFA03F308FA02F3F4
S31508000C3C43F08063BAF1080F0CD1C6681C0A94FA03
S31508000C4CA4F9B9FA89F926EA04060C6904FA09F42E
S31508000C5C2643C6604FEA136993FAA3F6B6FA86F6E4
S31508000C6C93FAA3FB0F24BBFA8BFBB60004FA06F621
S31508000C7C50F809404FEA8B0B24EA06060AFA0BFBD6
S31508000C8C46EA0B0640F809604C6824F00804012C67
S31508000C9C2AD193FAA3F4B4FA84F493FAA3FBBBFA15
S31508000CAC8BFBA40007FA04F426EA04068C684FEAC0
S31508000CBC8B0B04FA0BFB46EA0B0640F8096093FA11
S31508000CCCA3FABAFA8AFA93FAA3F3B3FA83F34FEAB6
S31508000CDC8A0A0CFA0AFA26EA0A0ACE689B009E4089
S31508000CEC4AEA060640F8096001328DE770470000AB
S31508000CFC2DE9FF48954A964C136843F01003136088
S31508000D0C944A954BD16821F4E0610904090C0B430C
S31508000D1C4FF47A71D3602368B3FBF1F3013BB3F15B
S31508000D2C807F0CD24FF0E0214B61F023072082F82C
S31508000D3C233000238B610861D16882F823300120A7
S31508000D4CFFF76EFA4FF08050FFF75CFA0420FFF7B6
S31508000D5C67FA0820FFF764FA1020FFF761FA4FF4D8
S31508000D6C0030FFF74FFA4FF00070FFF74BFA42F2DC
S31508000D7C200701230026CDE901730223774F01A929
S31508000D8C3846CDE90336FFF72FFF20234FF0040A28
S31508000D9C7B6107F5006003F184634FF009094FF096
S31508000DAC03080193CDF808A0FFF71EFF40F2044391
S31508000DBC3846CDE90139CDE90386FFF715FF40F62C
S31508000DCC0803CDE9013AFFF70FFF0823DFF890C1B6
S31508000DDC07F58060CDE901C3FFF706FF614BCDE946
S31508000DEC0386CDE90139FFF7FFFE5F4A536823F006
S31508000DFCE06323F4C04343F0E06343F48043536059
S31508000E0C02F59032136823F0070343F002031360CC
S31508000E1C136803F00703022B02D0FFF747FAFCE727
S31508000E2C52490B6843F480230B600B6843F48033F8
S31508000E3C0B600B689E03FCD54B6823F47C1343F4B8
S31508000E4CE8134B600B6843F080730B600B689801D2
S31508000E5CFCD54B6823F0F0034B604B6823F4E06336
S31508000E6C43F480634B604B6823F460534B604B68C8
S31508000E7C23F0030343F002034B604B6803F00C03A7
S31508000E8C082BFAD13A4B236072B66422394B4FF4CD
S31508000E9C00601A80FFF7C4F94B68374AC3F3C223BC
S31508000EACD05C2368354A23FA00F04B68012113F409
S31508000EBC605F0CBF0123022311604FF6FF71434399
S31508000ECCD1622F490024B3FBF1F3013B93625369BA
S31508000EDC2C4E43F0010353613460526A2A4B01A825
S31508000EEC1A804FF0FF33294A4FF4FA781360284AD0
S31508000EFC284F1360284BA3F88240C3F88840A3F800
S31508000F0C864083F8814083F88440FFF73FF94FF415
S31508000F1C7A7E039BB3FBFEFE3A787878111801FBB0
S31508000F2C0881BEFBF1FC01FB1CE333B90CF1FF3164
S31508000F3C89B2B1F5806FC0F0C9810134122C07F162
S31508000F4C0207E9D1FFF7B2F9FCE700BF002002401F
S31508000F5C0000002000ED00E00003FA05000801403F
S31508000F6C01000104020002040000014000100240C6
S31508000F7C00A24A045E04002034140008002C014028
S31508000F8CA0860100640400205C0400202C000020CC
S31508000F9C30020020401400089C050020FFF768F971
S31508000FAC3368DB1B0A2B40F2AB81636A43F40033CC
S31508000FBC6362052384F8203094F820202368013ACC
S31508000FCC012A4FD8D3F8002242F00102C3F80022B6
S31508000FDCD3F81C2222F00102C3F81C22D3F80C22E7
S31508000FEC42F00102C3F80C22AE4AC3F8402202F1C1
S31508000FFC4C520432C3F84422D3F8042222F00102DC
S3150800100CC3F80422D3F8142222F00102C3F81422DE
S3150800101CD3F81C2242F00102C3F81C22D3F8002292
S3150800102C22F00102C3F8002294F82020012A40F08D
S3150800103CBE80022284F820201A6822F001021A6067
S3150800104CFFF716F9376823685B6813F001030ED1AE
S3150800105C636219E0FFF70CF93368DB1B0A2B40F2C5
S3150800106C5B81A2E7626A42F480226262DCE7FFF7E0
S3150800107CFFF83368DB1B0A2BE5D9636A43F40033A4
S3150800108C6362052384F820300223874FDFF81C821D
S3150800109C3B70D8F80C3023F40053C8F80C30D8F849
S315080010AC0C309B042ED4D8F80C3001A823F4B0537A
S315080010BC23F00C0343F00C03C8F80C30D8F81030A6
S315080010CC23F44053C8F81030D8F8143023F440737E
S315080010DCC8F81430FFF75AF8039B9BB119225343EF
S315080010EC4FF46132B3FBF2F36422B3FBF2F102FB69
S315080010FC11331B013233B3FBF2F303EB01139BB22F
S3150800110CC8F80830DFF8A4810122D8F81030DFF8C7
S3150800111CA09123F49043C8F81030D8F81430DFF8AF
S3150800112C94A123F02A03C8F81430D8F80C3043F4E9
S3150800113C0053C8F80C3000233B705F4B1A70FFF74E
S3150800114C97F832685D4B1A60FFF7DEFAFFF7AEF8D0
S3150800115CFFF78EF894F82030013B012B77D82368DB
S3150800116CDA68900727D1636A43F4001363629AF826
S3150800117C00B0D8F80030BBF1000F6CD19B0613D524
S3150800118CD8F804304E4ADBB21370013BDBB2802B25
S3150800119C0AD8FFF76DF84B4B32681A604A4B83F83E
S315080011AC00B001238AF80030FFF7AEFACEE7636A7F
S315080011BC43F400234CE7D3F8B02112F004020CBF19
S315080011CCD3F8B051D3F8B011D3F8B011D3F8B41191
S315080011DC08BF6D0D090758BFD3F8B411D3F8B4116D
S315080011ECD3F8B411D3F8B81189F80010D3F8B8119C
S315080011FC090A89F80110D3F8B811090C89F80210F4
S3150800120CD3F8B811090E89F80310D3F8BC1189F86C
S3150800121C0410D3F8BC11090A89F80510D3F8BC11C7
S3150800122C090C89F80610D3F8BC11090E89F80710B1
S3150800123CD96841F02001D96040F267639D4296D186
S3150800124C002A94D102233B70FFF780FA8FE7636A72
S3150800125C43F480238AE713F0200B18D01A4A18494E
S3150800126C1378D8F804C0C8180133DBB213700A789F
S3150800127C80F801C09A4297D148460131FFF73EF8EB
S3150800128C00238AF800303B70FFF760FA8CE7FEF70C
S3150800129CEFFF0C4B32681B68C833934284D28AF82A
S315080012AC00B081E70000E0CC0400002000440040B8
S315080012BC900400209505002024000020280000201A
S315080012CC1105002098050020960500204FF0807720
S315080012DC364C013AC4E90233A383431E344912043B
S315080012EC1B05A76163612261C4F804C094F8203019
S315080012FC0B68216043F001030B60FEF7B9FF3768F2
S3150800130C23685A68D1077FF549AE1A6822F002029B
S3150800131C1A60FEF7ADFF376823685A6892073FF5DF
S3150800132C99AE227E012A1A680CBF42F0800222F07E
S3150800133C80021A60627E012A1A680CBF42F04002CB
S3150800134C22F040021A60A27E012A1A680CBF42F0EB
S3150800135C200222F020021A60E27E012A1A680CBFCB
S3150800136C22F0100242F010021A60227F012A1A6833
S3150800137C0CBF42F0080222F008021A60627F012AAA
S3150800138C1A680CBF42F0040222F004021A60D4E96F
S3150800139C02210A4321690A4361690A4361680139D2
S315080013AC0A43DA6100236362012303E6340400204E
S315080013BC006400407047000070B500260C4D0D4CBB
S315080013CC641BA410A64209D100F01AF800260A4D8F
S315080013DC0A4C641BA410A64205D170BD55F8043BF3
S315080013EC98470136EEE755F8043B98470136F2E77D
S315080013FC6C1400086C1400086C14000870140008AF
S3150800140CF8B500BFF8BC08BC9E467047F8B500BFD7
S30D0800141CF8BC08BC9E467047A7
S315080014240000000000000000010203040607080982
S315080014340000000001020304000800000502060279
S31508001444060307030803090309040A040B040C0426
S315080014540C050D050E050F050F06100610071008D6
S30D080014644F70656E424C5400FE
S3090800146C3101000834
S309080014700D01000854
S30D080014740024F4000500000045
S7050800014DA4
